:020000040000FA
:06000000A3EF05F0120061
:0A0006000100640B00006000000020
:040010006A00000082
:0C001400D9CFE6FFE1CFD9FF040EE126B2
:10002000DE6ADD6ADECF00F0DDCF01F0FD0EDBCF52
:1000300002F0FE0EDBCF03F00250005C03500158CB
:100040001AE2020EDB6A030EDB6A020EDBCF00F05F
:10005000030EDBCF01F0FA0E005C000E015806E241
:10006000020EDB2A030E01E3DB2AEFD7DF2A010EA3
:1000700001E3DB2AD7D7040EE15C02E2E16AE55234
:10008000E16EE552E7CFD9FF12008184010EE66EE2
:10009000E66AC0DFE552E55281941200D9CFE6FF4F
:1000A000E1CFD9FF0F0E8116FE0EDB50F00B81124F
:1000B00081908192EADF0F0E8116FE0EDB38F00B85
:1000C000811281908192E1DF050EE66EE66AA2DF81
:1000D000E552E552E552E7CFD9FF1200D9CFE6FF4E
:1000E000E1CFD9FF0F0E8116FE0EDB50F00B81120F
:1000F00081808192CADF0F0E8116FE0EDB38F00B75
:10010000811281808192C1DF050EE66EE66A82DF90
:10011000E552E552E552E7CFD9FF120081940A0E6D
:10012000E66EE66A77DFE552E552330EE66EB6DF3D
:10013000E552320EE66EB2DFE552280EE66EAEDF15
:10014000E552010EE66EAADFE5520E0EE66EA6DF60
:10015000E552800EE66EA2DFE552060EE66E9EDFE9
:10016000E5521200D9CFE6FFE1CFD9FFE652DF6AB0
:10017000DF50E76EFD0EDBCFE9FFFE0EDBCFEAFFBF
:10018000E750E926000EEA22EF5012E0DF50E76E5A
:10019000FD0EDBCFE9FFFE0EDBCFEAFFE750E926DD
:1001A000000EEA22EF50E66E99DFE552DF2AE0D733
:1001B000E552E552E7CFD9FF1200D9CFE6FFE1CFF4
:1001C000D9FF020EE126D950FD0FE96EFF0EDA20AD
:1001D000EA6E010EEE1801E1ED502BE1800EE66EA5
:1001E0005DDFE552010EE66EE66A14DFE552E55288
:1001F000010EDE6EDD6ADECF00F0DDCF01F0FB0E1A
:10020000DBCF02F0FC0EDBCF03F001500318E8AEA9
:1002100002D0033404D00250005C0350015809E2BC
:10022000140EE66E3BDFE552DF2A010E01E3DB2A06
:10023000E2D7D950FD0FE96EFF0EDA20EA6E020E0A
:10024000EE1801E1ED502BE1C00EE66E27DFE5521E
:10025000010EE66EE66ADEDEE552E552010EDE6E66
:10026000DD6ADECF00F0DDCF01F0FB0EDBCF02F068
:10027000FC0EDBCF03F001500318E8AE02D00334CC
:1002800004D00250005C0350015809E2140EE66EDF
:1002900005DFE552DF2A010E01E3DB2AE2D7020E79
:1002A000E15C02E2E16AE552E16EE552E7CFD9FF97
:1002B00012000F0EC16E6D966F869468936A380EA9
:1002C000926E80908092809429DF48D8640EE66E0A
:1002D000E66AA0DEE552E5521200D9CFE6FFE1CF93
:1002E000D9FFFD0EDBCF00F0FE0EDBCF01F0E80EF4
:1002F0000102F3CF01F0030E0002F3500126E80ED5
:100300000002F3CF00F0F450012600C0E6FF01C068
:10031000E6FF80DEE552E552E552E7CFD9FF120055
:10032000D9CFE6FFE1CFD9FFFD0EDBCF00F0FE0E07
:10033000DBCF01F03C0E0102F3CF01F00002F3CF5E
:1003400000F0F450012600C0E6FF01C0E6FFC5DF63
:10035000E552E552E552E7CFD9FF1200D9CFE6FFCB
:10036000E1CFD9FFE652010EE66E98DEE552710E3E
:10037000E66E000EE66EF6DEE552E552C00EE66E63
:100380008DDEE552600EE66E000EE66EEBDEE552A7
:10039000E5520001D46BD56B82B0C8D0640EE66E16
:1003A000E66A38DEE552E5528250020B5DE082508B
:1003B000040B5AE1640EE66EE66A2CDEE552E55265
:1003C0000001030ED41901E1D55103E1D46BD56BC3
:1003D00012D0010ED41901E1D55107E1020ED42546
:1003E000D46F000ED521D56F06D0010ED425D46F61
:1003F000000ED521D56F010EE66E50DEE5520001EC
:10040000D451D51108E1710EE66E000EE66EAADE3B
:10041000E552E5521ED0010ED41901E1D55108E193
:10042000820EE66E000EE66E9DDEE552E55211D0BC
:10043000020ED41901E1D55105E0030ED41901E1F2
:10044000D55107E1930EE66E000EE66E8BDEE552A7
:10045000E552C00EE66E22DEE552600EE66E000E3C
:10046000E66E80DEE552E552640EE66EE66AD2DDA7
:10047000E552E5528250020B58E18250040B55E0E0
:10048000640EE66EE66AC6DDE552E5520001D4511F
:10049000D51104E1030ED46FD56B0ED0030ED41921
:1004A00001E1D55105E1020ED45F000ED55B04D009
:1004B000010ED45F000ED55B010EE66EEFDDE55256
:1004C0000001D451D51108E1710EE66E000EE66E02
:1004D00049DEE552E5521ED0010ED41901E1D55195
:1004E00008E1820EE66E000EE66E3CDEE552E55255
:1004F00011D0020ED41901E1D55105E0030ED41933
:1005000001E1D55107E1930EE66E000EE66E2ADE9C
:10051000E552E552C00EE66EC1DDE552600EE66EB4
:10052000000EE66E1FDEE552E55236D7640EE66E2B
:10053000E66A70DDE552E5520001D451D51102E1C1
:1005400014D80DD0010ED41901E1D55102E151D8D2
:1005500006D0030ED41901E1D55101E177D800D0BE
:10056000E552E552E7CFD9FF1200010EE66E96DDA7
:10057000E552710EE66E000EE66EF4DDE552E552D0
:100580008250020B11E08250040B0EE18250100BDE
:100590000BE18250010B08E180B603D0809080828D
:1005A00002D080908092ECD78250020B11E18250F1
:1005B000040B0EE08250100B0BE18250010B08E19E
:1005C00080B803D08080809202D080908092ECD757
:1005D0008250020B0CE18250040B09E18250100B97
:1005E00006E18250010B03E180908092F1D7C8D7D9
:1005F0001200010EE66E52DDE552820EE66E000E2E
:10060000E66EB0DDE552E5528050200B0CE08250E2
:10061000800B09E08250400B06E08050100B03E194
:100620008080809211D08050200B0CE18250800B92
:1006300009E18250400B06E18050080B03E18090F5
:10064000808202D080908092DFD71200010EE66E89
:1006500025DDE5528094930EE66E000EE66E82DD97
:10066000E552E5523FD8960EE66EE66AD3DCE552D7
:10067000E552C8D8960EE66EE66ACCDCE552E55245
:10068000010EE66E0BDDE552C6C0E6FFC7C0E6FF11
:1006900024DEE552E5524FD980B609D0320EE66E1F
:1006A000E66AB8DCE552E55280908082F5D7809406
:1006B00080908092C8C0E6FFC9C0E6FF0EDEE5521A
:1006C000E55239D980B809D0320EE66EE66AA2DC6E
:1006D000E552E55280808092F5D780948090809298
:1006E000D3D71200D9CFE6FFE1CFD9FF030EE12621
:1006F000010EE66ED3DCE552A40EE66E000EE66E49
:1007000031DDE552E552010EE66EE66A020EE66E56
:10071000E66A53DDE552E552E552E55282B067D014
:10072000960EE66EE66A76DCE552E55282B054D06B
:10073000960EE66EE66A6EDCE552E5528250010BDB
:1007400046E18250020B43E18250040B40E1640E0B
:10075000E66EE66A5FDCE552E55282A21BD0050E2A
:100760000001C627000EC723D9CFE6FFDACFE6FF88
:10077000C6C0E6FFC7C0E6FFAAEC04F0E552E552AA
:10078000E552E552D9CFE6FFDACFE6FFEBDCE552E2
:10079000E5521CD082A41AD0050E0001C65F000EDF
:1007A000C75BD9CFE6FFDACFE6FFC6C0E6FFC7C01A
:1007B000E6FFAAEC04F0E552E552E552E552D9CF46
:1007C000E6FFDACFE6FFCEDCE552E552B7D7C00E42
:1007D000E66E64DCE5520AD082A008D02C0EE66EEC
:1007E000010EE66E17DCE552E55201D097D7030EF5
:1007F000E15C03E200D0E16AE552E16EE552E7CF49
:10080000D9FF1200D9CFE6FFE1CFD9FF030EE126D1
:10081000010EE66E43DCE552800EE66E3FDCE552EB
:10082000B50EE66E000EE66E9DDCE552E552010E59
:10083000E66EE66A020EE66EE66ABFDCE552E55257
:10084000E552E55282B06CD0960EE66EE66A0AEC8E
:1008500000F0E552E55282B057D0960EE66EE66A99
:100860000AEC00F0E552E5528250010B47E182505C
:10087000020B44E18250040B41E1640EE66EE66A2D
:100880000AEC00F0E552E55282A21BD0050E0001F1
:10089000C827000EC923D9CFE6FFDACFE6FFC8C0CC
:1008A000E6FFC9C0E6FFAAEC04F0E552E552E552C6
:1008B000E552D9CFE6FFDACFE6FF54DCE552E55248
:1008C0001CD082A41AD0050E0001C65F000EC75BC3
:1008D000D9CFE6FFDACFE6FFC8C0E6FFC9C0E6FF22
:1008E000AAEC04F0E552E552E552E552D9CFE6FF15
:1008F000DACFE6FF37DCE552E552B6D7C00EE66E3A
:100900004EEC00F0E5520BD082A009D02C0EE66E22
:10091000010EE66E0AEC00F0E552E55201D092D7E6
:10092000030EE15C03E200D0E16AE552E16EE552BC
:10093000E7CFD9FF120082B80AD0640EE66EE66AED
:100940000AEC00F0E552E55282A88084F4D7809446
:0409500000D01200C1
:0C095400D9CFE6FFDACFE6FFFA0EE3CFC2
:10096000D9FFFB0EE3CFDAFFFD0EE35209E72D0EB0
:10097000DE6EFC0EE31EE32AFD0ED8B4E306E31E92
:10098000E652E652E652FD0EE124E76EFF0EE2204B
:10099000E46EE652F70EE3CFE6FFF70EE3CFE6FF95
:1009A0001AEC05F0F90EE124E96EFF0EE220EA6E82
:1009B0000AEC05F00AE107EC05F009E10AEC05F0A4
:1009C00008E107EC05F007E108D015EC05F010ECA4
:1009D00005F015EC05F010EC05F015EC05F0DE6AFD
:1009E000F90EE126FF0EE222FF0EE3CFDAFFE55219
:1009F000FF0EE3CFD9FFE552FC0EE124E96EFF0EB6
:100A0000E220EA6EEECFF3FFEFCFF4FF1200EF38F3
:100A10000F0B1200EF500F0B02E1EE52D8841200C0
:100A2000EF380F0B300FDE6E1200EE500F0B300F51
:100A3000DE6E1200FC0EE3CFE9FFFD0EE3CFEAFF0E
:100A4000100EE66EEE6AEE6AEF6AD890FD0EE3369F
:100A5000FE0EE336ED36ED36EF36FF0EE30609E027
:100A60003BEC05F0EE523BEC05F0EE523BEC05F0B2
:100A7000EDD7E56E1200030EEF24E8B6EF6E300EF0
:080A8000EF24E8BEEF6E000C4C
:080A8800060EF66E000EF76E7B
:100A9000000EF86E00010900F550CF6F0900F55007
:100AA000D06F03E1CF6701D03DD00900F550CA6F88
:100AB0000900F550CB6F0900F550CC6F0900090013
:100AC000F550E96E0900F550EA6E090009000900C9
:100AD000F550CD6F0900F550CE6F09000900F6CF33
:100AE000D1F0F7CFD2F0F8CFD3F0CAC0F6FFCBC029
:100AF000F7FFCCC0F8FF0001CD5302E1CE5307E071
:100B00000900F550EE6ECD07F8E2CE07F9D7D1C057
:100B1000F6FFD2C0F7FFD3C0F8FF0001CF07000EE9
:060B2000D05BBFD71200FC
:0A0B2600000EF36E00EE00F0080E62
:100B300001D81200EA6002D0EE6AFCD7F350E960F7
:060B40001200EE6AFCD772
:0A0B460013EE00F023EE00F0F86A51
:100B5000059C44EC05F0B1EC05F059EC01F0FBD735
:020B6000120081
:020B620012007F
:0C0B64005363726F6C6C20746F20636828
:100B7000616E6765004D616E75616C206D6F6465B7
:100B80000000000000004175746F206D6F64650007
:100B90000000000000000054696D6572206D6F64F4
:100BA00065000000000000005369742070657269E0
:100BB0006F64000000000000005374616E642070D8
:0E0BC0006572696F6400000000000000000014
:00000001FF
